{
  "_format": "hh-sol-artifact-1",
  "contractName": "HandValentine",
  "sourceName": "contracts/HandValentine.sol",
  "abi": [
    {
      "inputs": [],
      "stateMutability": "nonpayable",
      "type": "constructor"
    },
    {
      "anonymous": false,
      "inputs": [
        {
          "indexed": true,
          "internalType": "address",
          "name": "owner",
          "type": "address"
        },
        {
          "indexed": true,
          "internalType": "address",
          "name": "approved",
          "type": "address"
        },
        {
          "indexed": true,
          "internalType": "uint256",
          "name": "tokenId",
          "type": "uint256"
        }
      ],
      "name": "Approval",
      "type": "event"
    },
    {
      "anonymous": false,
      "inputs": [
        {
          "indexed": true,
          "internalType": "address",
          "name": "owner",
          "type": "address"
        },
        {
          "indexed": true,
          "internalType": "address",
          "name": "operator",
          "type": "address"
        },
        {
          "indexed": false,
          "internalType": "bool",
          "name": "approved",
          "type": "bool"
        }
      ],
      "name": "ApprovalForAll",
      "type": "event"
    },
    {
      "anonymous": false,
      "inputs": [
        {
          "indexed": true,
          "internalType": "address",
          "name": "previousOwner",
          "type": "address"
        },
        {
          "indexed": true,
          "internalType": "address",
          "name": "newOwner",
          "type": "address"
        }
      ],
      "name": "OwnershipTransferred",
      "type": "event"
    },
    {
      "anonymous": false,
      "inputs": [
        {
          "indexed": true,
          "internalType": "address",
          "name": "from",
          "type": "address"
        },
        {
          "indexed": true,
          "internalType": "address",
          "name": "to",
          "type": "address"
        },
        {
          "indexed": true,
          "internalType": "uint256",
          "name": "tokenId",
          "type": "uint256"
        }
      ],
      "name": "Transfer",
      "type": "event"
    },
    {
      "inputs": [],
      "name": "MAX_SUPPLY",
      "outputs": [
        {
          "internalType": "uint256",
          "name": "",
          "type": "uint256"
        }
      ],
      "stateMutability": "view",
      "type": "function"
    },
    {
      "inputs": [],
      "name": "PRICE",
      "outputs": [
        {
          "internalType": "uint256",
          "name": "",
          "type": "uint256"
        }
      ],
      "stateMutability": "view",
      "type": "function"
    },
    {
      "inputs": [
        {
          "internalType": "address",
          "name": "to",
          "type": "address"
        },
        {
          "internalType": "uint256",
          "name": "tokenId",
          "type": "uint256"
        }
      ],
      "name": "approve",
      "outputs": [],
      "stateMutability": "nonpayable",
      "type": "function"
    },
    {
      "inputs": [],
      "name": "authorizedSigner",
      "outputs": [
        {
          "internalType": "address",
          "name": "",
          "type": "address"
        }
      ],
      "stateMutability": "view",
      "type": "function"
    },
    {
      "inputs": [
        {
          "internalType": "address",
          "name": "owner",
          "type": "address"
        }
      ],
      "name": "balanceOf",
      "outputs": [
        {
          "internalType": "uint256",
          "name": "",
          "type": "uint256"
        }
      ],
      "stateMutability": "view",
      "type": "function"
    },
    {
      "inputs": [
        {
          "internalType": "uint256",
          "name": "_maxMintsPerWallet",
          "type": "uint256"
        },
        {
          "internalType": "address",
          "name": "_authorizedSigner",
          "type": "address"
        }
      ],
      "name": "configure",
      "outputs": [],
      "stateMutability": "nonpayable",
      "type": "function"
    },
    {
      "inputs": [],
      "name": "counter",
      "outputs": [
        {
          "internalType": "uint256",
          "name": "",
          "type": "uint256"
        }
      ],
      "stateMutability": "view",
      "type": "function"
    },
    {
      "inputs": [
        {
          "internalType": "uint256",
          "name": "tokenId",
          "type": "uint256"
        }
      ],
      "name": "getApproved",
      "outputs": [
        {
          "internalType": "address",
          "name": "",
          "type": "address"
        }
      ],
      "stateMutability": "view",
      "type": "function"
    },
    {
      "inputs": [
        {
          "internalType": "address",
          "name": "owner",
          "type": "address"
        },
        {
          "internalType": "address",
          "name": "operator",
          "type": "address"
        }
      ],
      "name": "isApprovedForAll",
      "outputs": [
        {
          "internalType": "bool",
          "name": "",
          "type": "bool"
        }
      ],
      "stateMutability": "view",
      "type": "function"
    },
    {
      "inputs": [],
      "name": "maxMintsPerWallet",
      "outputs": [
        {
          "internalType": "uint256",
          "name": "",
          "type": "uint256"
        }
      ],
      "stateMutability": "view",
      "type": "function"
    },
    {
      "inputs": [
        {
          "internalType": "address",
          "name": "",
          "type": "address"
        }
      ],
      "name": "mintedNFTs",
      "outputs": [
        {
          "internalType": "uint256",
          "name": "",
          "type": "uint256"
        }
      ],
      "stateMutability": "view",
      "type": "function"
    },
    {
      "inputs": [],
      "name": "name",
      "outputs": [
        {
          "internalType": "string",
          "name": "",
          "type": "string"
        }
      ],
      "stateMutability": "view",
      "type": "function"
    },
    {
      "inputs": [],
      "name": "owner",
      "outputs": [
        {
          "internalType": "address",
          "name": "",
          "type": "address"
        }
      ],
      "stateMutability": "view",
      "type": "function"
    },
    {
      "inputs": [
        {
          "internalType": "uint256",
          "name": "tokenId",
          "type": "uint256"
        }
      ],
      "name": "ownerOf",
      "outputs": [
        {
          "internalType": "address",
          "name": "",
          "type": "address"
        }
      ],
      "stateMutability": "view",
      "type": "function"
    },
    {
      "inputs": [
        {
          "internalType": "string",
          "name": "tokenURI",
          "type": "string"
        }
      ],
      "name": "publicMint",
      "outputs": [],
      "stateMutability": "payable",
      "type": "function"
    },
    {
      "inputs": [],
      "name": "renounceOwnership",
      "outputs": [],
      "stateMutability": "nonpayable",
      "type": "function"
    },
    {
      "inputs": [
        {
          "internalType": "address",
          "name": "from",
          "type": "address"
        },
        {
          "internalType": "address",
          "name": "to",
          "type": "address"
        },
        {
          "internalType": "uint256",
          "name": "tokenId",
          "type": "uint256"
        }
      ],
      "name": "safeTransferFrom",
      "outputs": [],
      "stateMutability": "nonpayable",
      "type": "function"
    },
    {
      "inputs": [
        {
          "internalType": "address",
          "name": "from",
          "type": "address"
        },
        {
          "internalType": "address",
          "name": "to",
          "type": "address"
        },
        {
          "internalType": "uint256",
          "name": "tokenId",
          "type": "uint256"
        },
        {
          "internalType": "bytes",
          "name": "_data",
          "type": "bytes"
        }
      ],
      "name": "safeTransferFrom",
      "outputs": [],
      "stateMutability": "nonpayable",
      "type": "function"
    },
    {
      "inputs": [
        {
          "internalType": "address",
          "name": "operator",
          "type": "address"
        },
        {
          "internalType": "bool",
          "name": "approved",
          "type": "bool"
        }
      ],
      "name": "setApprovalForAll",
      "outputs": [],
      "stateMutability": "nonpayable",
      "type": "function"
    },
    {
      "inputs": [
        {
          "internalType": "address",
          "name": "_authorizedSigner",
          "type": "address"
        }
      ],
      "name": "setAuthorizedSigner",
      "outputs": [],
      "stateMutability": "nonpayable",
      "type": "function"
    },
    {
      "inputs": [
        {
          "internalType": "uint256",
          "name": "_maxMintsPerWallet",
          "type": "uint256"
        }
      ],
      "name": "setMaxMintsPerWallet",
      "outputs": [],
      "stateMutability": "nonpayable",
      "type": "function"
    },
    {
      "inputs": [
        {
          "internalType": "bytes4",
          "name": "interfaceId",
          "type": "bytes4"
        }
      ],
      "name": "supportsInterface",
      "outputs": [
        {
          "internalType": "bool",
          "name": "",
          "type": "bool"
        }
      ],
      "stateMutability": "view",
      "type": "function"
    },
    {
      "inputs": [],
      "name": "symbol",
      "outputs": [
        {
          "internalType": "string",
          "name": "",
          "type": "string"
        }
      ],
      "stateMutability": "view",
      "type": "function"
    },
    {
      "inputs": [
        {
          "internalType": "uint256",
          "name": "tokenId",
          "type": "uint256"
        }
      ],
      "name": "tokenURI",
      "outputs": [
        {
          "internalType": "string",
          "name": "",
          "type": "string"
        }
      ],
      "stateMutability": "view",
      "type": "function"
    },
    {
      "inputs": [],
      "name": "totalSupply",
      "outputs": [
        {
          "internalType": "uint256",
          "name": "",
          "type": "uint256"
        }
      ],
      "stateMutability": "view",
      "type": "function"
    },
    {
      "inputs": [
        {
          "internalType": "address",
          "name": "from",
          "type": "address"
        },
        {
          "internalType": "address",
          "name": "to",
          "type": "address"
        },
        {
          "internalType": "uint256",
          "name": "tokenId",
          "type": "uint256"
        }
      ],
      "name": "transferFrom",
      "outputs": [],
      "stateMutability": "nonpayable",
      "type": "function"
    },
    {
      "inputs": [
        {
          "internalType": "address",
          "name": "newOwner",
          "type": "address"
        }
      ],
      "name": "transferOwnership",
      "outputs": [],
      "stateMutability": "nonpayable",
      "type": "function"
    },
    {
      "inputs": [],
      "name": "withdraw",
      "outputs": [],
      "stateMutability": "nonpayable",
      "type": "function"
    },
    {
      "stateMutability": "payable",
      "type": "receive"
    }
  ],
  "bytecode": "0x6080604052600f600a556001600b55735172c410ad20d27763c686ada1458d2c00e145d3600c60006101000a81548173ffffffffffffffffffffffffffffffffffffffff021916908373ffffffffffffffffffffffffffffffffffffffff1602179055503480156200007057600080fd5b506040518060400160405280600f81526020017f48616e642056616c656e74696e657300000000000000000000000000000000008152506040518060400160405280600481526020017f484e4456000000000000000000000000000000000000000000000000000000008152508160009080519060200190620000f592919062000205565b5080600190805190602001906200010e92919062000205565b50505062000131620001256200013760201b60201c565b6200013f60201b60201c565b6200031a565b600033905090565b6000600760009054906101000a900473ffffffffffffffffffffffffffffffffffffffff16905081600760006101000a81548173ffffffffffffffffffffffffffffffffffffffff021916908373ffffffffffffffffffffffffffffffffffffffff1602179055508173ffffffffffffffffffffffffffffffffffffffff168173ffffffffffffffffffffffffffffffffffffffff167f8be0079c531659141344cd1fd0a4f28419497f9722a3daafe3b4186f6b6457e060405160405180910390a35050565b8280546200021390620002b5565b90600052602060002090601f01602090048101928262000237576000855562000283565b82601f106200025257805160ff191683800117855562000283565b8280016001018555821562000283579182015b828111156200028257825182559160200191906001019062000265565b5b50905062000292919062000296565b5090565b5b80821115620002b157600081600090555060010162000297565b5090565b60006002820490506001821680620002ce57607f821691505b60208210811415620002e557620002e4620002eb565b5b50919050565b7f4e487b7100000000000000000000000000000000000000000000000000000000600052602260045260246000fd5b6139dd806200032a6000396000f3fe6080604052600436106101bb5760003560e01c80638d859f3e116100ec578063ba060bed1161008a578063d279b0ca11610064578063d279b0ca146105f6578063e985e9c51461061f578063f2fde38b1461065c578063f516a2e614610685576101c2565b8063ba060bed14610551578063c771909c1461058e578063c87b56dd146105b9576101c2565b8063963c3546116100c6578063963c3546146104ba578063a22cb465146104e3578063b3d7acf91461050c578063b88d4fde14610528576101c2565b80638d859f3e146104395780638da5cb5b1461046457806395d89b411461048f576101c2565b80633ccfd60b116101595780636352211e116101335780636352211e1461037f57806370a08231146103bc578063715018a6146103f957806381b8d60b14610410576101c2565b80633ccfd60b1461031457806342842e0e1461032b57806361bc221a14610354576101c2565b8063095ea7b311610195578063095ea7b31461026c57806318160ddd1461029557806323b872dd146102c057806332cb6b0c146102e9576101c2565b806301ffc9a7146101c757806306fdde0314610204578063081812fc1461022f576101c2565b366101c257005b600080fd5b3480156101d357600080fd5b506101ee60048036038101906101e9919061274b565b6106b0565b6040516101fb9190612c7d565b60405180910390f35b34801561021057600080fd5b50610219610792565b6040516102269190612c98565b60405180910390f35b34801561023b57600080fd5b50610256600480360381019061025191906127de565b610824565b6040516102639190612c16565b60405180910390f35b34801561027857600080fd5b50610293600480360381019061028e919061270f565b6108a9565b005b3480156102a157600080fd5b506102aa6109c1565b6040516102b79190612f5a565b60405180910390f35b3480156102cc57600080fd5b506102e760048036038101906102e29190612609565b6109c7565b005b3480156102f557600080fd5b506102fe610a27565b60405161030b9190612f5a565b60405180910390f35b34801561032057600080fd5b50610329610a2d565b005b34801561033757600080fd5b50610352600480360381019061034d9190612609565b610b32565b005b34801561036057600080fd5b50610369610b52565b6040516103769190612f5a565b60405180910390f35b34801561038b57600080fd5b506103a660048036038101906103a191906127de565b610b58565b6040516103b39190612c16565b60405180910390f35b3480156103c857600080fd5b506103e360048036038101906103de91906125a4565b610c0a565b6040516103f09190612f5a565b60405180910390f35b34801561040557600080fd5b5061040e610cc2565b005b34801561041c57600080fd5b5061043760048036038101906104329190612807565b610d4a565b005b34801561044557600080fd5b5061044e610e12565b60405161045b9190612f5a565b60405180910390f35b34801561047057600080fd5b50610479610e1d565b6040516104869190612c16565b60405180910390f35b34801561049b57600080fd5b506104a4610e47565b6040516104b19190612c98565b60405180910390f35b3480156104c657600080fd5b506104e160048036038101906104dc91906127de565b610ed9565b005b3480156104ef57600080fd5b5061050a600480360381019061050591906126d3565b610f5f565b005b6105266004803603810190610521919061279d565b610f75565b005b34801561053457600080fd5b5061054f600480360381019061054a9190612658565b611123565b005b34801561055d57600080fd5b50610578600480360381019061057391906125a4565b611185565b6040516105859190612f5a565b60405180910390f35b34801561059a57600080fd5b506105a361119d565b6040516105b09190612c16565b60405180910390f35b3480156105c557600080fd5b506105e060048036038101906105db91906127de565b6111c3565b6040516105ed9190612c98565b60405180910390f35b34801561060257600080fd5b5061061d600480360381019061061891906125a4565b611315565b005b34801561062b57600080fd5b50610646600480360381019061064191906125cd565b6113d5565b6040516106539190612c7d565b60405180910390f35b34801561066857600080fd5b50610683600480360381019061067e91906125a4565b611469565b005b34801561069157600080fd5b5061069a611561565b6040516106a79190612f5a565b60405180910390f35b60007f80ac58cd000000000000000000000000000000000000000000000000000000007bffffffffffffffffffffffffffffffffffffffffffffffffffffffff1916827bffffffffffffffffffffffffffffffffffffffffffffffffffffffff1916148061077b57507f5b5e139f000000000000000000000000000000000000000000000000000000007bffffffffffffffffffffffffffffffffffffffffffffffffffffffff1916827bffffffffffffffffffffffffffffffffffffffffffffffffffffffff1916145b8061078b575061078a82611567565b5b9050919050565b6060600080546107a19061320a565b80601f01602080910402602001604051908101604052809291908181526020018280546107cd9061320a565b801561081a5780601f106107ef5761010080835404028352916020019161081a565b820191906000526020600020905b8154815290600101906020018083116107fd57829003601f168201915b5050505050905090565b600061082f826115d1565b61086e576040517f08c379a000000000000000000000000000000000000000000000000000000000815260040161086590612e9a565b60405180910390fd5b6004600083815260200190815260200160002060009054906101000a900473ffffffffffffffffffffffffffffffffffffffff169050919050565b60006108b482610b58565b90508073ffffffffffffffffffffffffffffffffffffffff168373ffffffffffffffffffffffffffffffffffffffff161415610925576040517f08c379a000000000000000000000000000000000000000000000000000000000815260040161091c90612efa565b60405180910390fd5b8073ffffffffffffffffffffffffffffffffffffffff1661094461163d565b73ffffffffffffffffffffffffffffffffffffffff16148061097357506109728161096d61163d565b6113d5565b5b6109b2576040517f08c379a00000000000000000000000000000000000000000000000000000000081526004016109a990612dba565b60405180910390fd5b6109bc8383611645565b505050565b600d5481565b6109d86109d261163d565b826116fe565b610a17576040517f08c379a0000000000000000000000000000000000000000000000000000000008152600401610a0e90612f3a565b60405180910390fd5b610a228383836117dc565b505050565b6115b381565b610a3561163d565b73ffffffffffffffffffffffffffffffffffffffff16610a53610e1d565b73ffffffffffffffffffffffffffffffffffffffff1614610aa9576040517f08c379a0000000000000000000000000000000000000000000000000000000008152600401610aa090612eba565b60405180910390fd5b6000606447610ab89190613095565b9050600c60009054906101000a900473ffffffffffffffffffffffffffffffffffffffff1673ffffffffffffffffffffffffffffffffffffffff166108fc606483610b0391906130c6565b9081150290604051600060405180830381858888f19350505050158015610b2e573d6000803e3d6000fd5b5050565b610b4d83838360405180602001604052806000815250611123565b505050565b600b5481565b6000806002600084815260200190815260200160002060009054906101000a900473ffffffffffffffffffffffffffffffffffffffff169050600073ffffffffffffffffffffffffffffffffffffffff168173ffffffffffffffffffffffffffffffffffffffff161415610c01576040517f08c379a0000000000000000000000000000000000000000000000000000000008152600401610bf890612dfa565b60405180910390fd5b80915050919050565b60008073ffffffffffffffffffffffffffffffffffffffff168273ffffffffffffffffffffffffffffffffffffffff161415610c7b576040517f08c379a0000000000000000000000000000000000000000000000000000000008152600401610c7290612dda565b60405180910390fd5b600360008373ffffffffffffffffffffffffffffffffffffffff1673ffffffffffffffffffffffffffffffffffffffff168152602001908152602001600020549050919050565b610cca61163d565b73ffffffffffffffffffffffffffffffffffffffff16610ce8610e1d565b73ffffffffffffffffffffffffffffffffffffffff1614610d3e576040517f08c379a0000000000000000000000000000000000000000000000000000000008152600401610d3590612eba565b60405180910390fd5b610d486000611a43565b565b610d5261163d565b73ffffffffffffffffffffffffffffffffffffffff16610d70610e1d565b73ffffffffffffffffffffffffffffffffffffffff1614610dc6576040517f08c379a0000000000000000000000000000000000000000000000000000000008152600401610dbd90612eba565b60405180910390fd5b81600a8190555080600c60006101000a81548173ffffffffffffffffffffffffffffffffffffffff021916908373ffffffffffffffffffffffffffffffffffffffff1602179055505050565b66470de4df82000081565b6000600760009054906101000a900473ffffffffffffffffffffffffffffffffffffffff16905090565b606060018054610e569061320a565b80601f0160208091040260200160405190810160405280929190818152602001828054610e829061320a565b8015610ecf5780601f10610ea457610100808354040283529160200191610ecf565b820191906000526020600020905b815481529060010190602001808311610eb257829003601f168201915b5050505050905090565b610ee161163d565b73ffffffffffffffffffffffffffffffffffffffff16610eff610e1d565b73ffffffffffffffffffffffffffffffffffffffff1614610f55576040517f08c379a0000000000000000000000000000000000000000000000000000000008152600401610f4c90612eba565b60405180910390fd5b80600a8190555050565b610f71610f6a61163d565b8383611b09565b5050565b6115b3600b5410610fbb576040517f08c379a0000000000000000000000000000000000000000000000000000000008152600401610fb290612e3a565b60405180910390fd5b600a546001600960003373ffffffffffffffffffffffffffffffffffffffff1673ffffffffffffffffffffffffffffffffffffffff1681526020019081526020016000205461100a919061303f565b111561104b576040517f08c379a000000000000000000000000000000000000000000000000000000000815260040161104290612f1a565b60405180910390fd5b66470de4df8200003414611094576040517f08c379a000000000000000000000000000000000000000000000000000000000815260040161108b90612cda565b60405180910390fd5b600960003373ffffffffffffffffffffffffffffffffffffffff1673ffffffffffffffffffffffffffffffffffffffff16815260200190815260200160002060008154809291906110e49061326d565b91905055506110fc6110f461163d565b600b54611c76565b611108600b5482611c94565b600b600081548092919061111b9061326d565b919050555050565b61113461112e61163d565b836116fe565b611173576040517f08c379a000000000000000000000000000000000000000000000000000000000815260040161116a90612f3a565b60405180910390fd5b61117f84848484611d08565b50505050565b60096020528060005260406000206000915090505481565b600c60009054906101000a900473ffffffffffffffffffffffffffffffffffffffff1681565b60606111ce826115d1565b61120d576040517f08c379a000000000000000000000000000000000000000000000000000000000815260040161120490612e7a565b60405180910390fd5b600060066000848152602001908152602001600020805461122d9061320a565b80601f01602080910402602001604051908101604052809291908181526020018280546112599061320a565b80156112a65780601f1061127b576101008083540402835291602001916112a6565b820191906000526020600020905b81548152906001019060200180831161128957829003601f168201915b5050505050905060006112b7611d64565b90506000815114156112cd578192505050611310565b6000825111156113025780826040516020016112ea929190612bf2565b60405160208183030381529060405292505050611310565b61130b84611d7b565b925050505b919050565b61131d61163d565b73ffffffffffffffffffffffffffffffffffffffff1661133b610e1d565b73ffffffffffffffffffffffffffffffffffffffff1614611391576040517f08c379a000000000000000000000000000000000000000000000000000000000815260040161138890612eba565b60405180910390fd5b80600c60006101000a81548173ffffffffffffffffffffffffffffffffffffffff021916908373ffffffffffffffffffffffffffffffffffffffff16021790555050565b6000600560008473ffffffffffffffffffffffffffffffffffffffff1673ffffffffffffffffffffffffffffffffffffffff16815260200190815260200160002060008373ffffffffffffffffffffffffffffffffffffffff1673ffffffffffffffffffffffffffffffffffffffff16815260200190815260200160002060009054906101000a900460ff16905092915050565b61147161163d565b73ffffffffffffffffffffffffffffffffffffffff1661148f610e1d565b73ffffffffffffffffffffffffffffffffffffffff16146114e5576040517f08c379a00000000000000000000000000000000000000000000000000000000081526004016114dc90612eba565b60405180910390fd5b600073ffffffffffffffffffffffffffffffffffffffff168173ffffffffffffffffffffffffffffffffffffffff161415611555576040517f08c379a000000000000000000000000000000000000000000000000000000000815260040161154c90612cfa565b60405180910390fd5b61155e81611a43565b50565b600a5481565b60007f01ffc9a7000000000000000000000000000000000000000000000000000000007bffffffffffffffffffffffffffffffffffffffffffffffffffffffff1916827bffffffffffffffffffffffffffffffffffffffffffffffffffffffff1916149050919050565b60008073ffffffffffffffffffffffffffffffffffffffff166002600084815260200190815260200160002060009054906101000a900473ffffffffffffffffffffffffffffffffffffffff1673ffffffffffffffffffffffffffffffffffffffff1614159050919050565b600033905090565b816004600083815260200190815260200160002060006101000a81548173ffffffffffffffffffffffffffffffffffffffff021916908373ffffffffffffffffffffffffffffffffffffffff160217905550808273ffffffffffffffffffffffffffffffffffffffff166116b883610b58565b73ffffffffffffffffffffffffffffffffffffffff167f8c5be1e5ebec7d5bd14f71427d1e84f3dd0314c0f7b2291e5b200ac8c7c3b92560405160405180910390a45050565b6000611709826115d1565b611748576040517f08c379a000000000000000000000000000000000000000000000000000000000815260040161173f90612d9a565b60405180910390fd5b600061175383610b58565b90508073ffffffffffffffffffffffffffffffffffffffff168473ffffffffffffffffffffffffffffffffffffffff1614806117c257508373ffffffffffffffffffffffffffffffffffffffff166117aa84610824565b73ffffffffffffffffffffffffffffffffffffffff16145b806117d357506117d281856113d5565b5b91505092915050565b8273ffffffffffffffffffffffffffffffffffffffff166117fc82610b58565b73ffffffffffffffffffffffffffffffffffffffff1614611852576040517f08c379a000000000000000000000000000000000000000000000000000000000815260040161184990612d1a565b60405180910390fd5b600073ffffffffffffffffffffffffffffffffffffffff168273ffffffffffffffffffffffffffffffffffffffff1614156118c2576040517f08c379a00000000000000000000000000000000000000000000000000000000081526004016118b990612d5a565b60405180910390fd5b6118cd838383611e22565b6118d8600082611645565b6001600360008573ffffffffffffffffffffffffffffffffffffffff1673ffffffffffffffffffffffffffffffffffffffff16815260200190815260200160002060008282546119289190613120565b925050819055506001600360008473ffffffffffffffffffffffffffffffffffffffff1673ffffffffffffffffffffffffffffffffffffffff168152602001908152602001600020600082825461197f919061303f565b92505081905550816002600083815260200190815260200160002060006101000a81548173ffffffffffffffffffffffffffffffffffffffff021916908373ffffffffffffffffffffffffffffffffffffffff160217905550808273ffffffffffffffffffffffffffffffffffffffff168473ffffffffffffffffffffffffffffffffffffffff167fddf252ad1be2c89b69c2b068fc378daa952ba7f163c4a11628f55a4df523b3ef60405160405180910390a4611a3e838383611e27565b505050565b6000600760009054906101000a900473ffffffffffffffffffffffffffffffffffffffff16905081600760006101000a81548173ffffffffffffffffffffffffffffffffffffffff021916908373ffffffffffffffffffffffffffffffffffffffff1602179055508173ffffffffffffffffffffffffffffffffffffffff168173ffffffffffffffffffffffffffffffffffffffff167f8be0079c531659141344cd1fd0a4f28419497f9722a3daafe3b4186f6b6457e060405160405180910390a35050565b8173ffffffffffffffffffffffffffffffffffffffff168373ffffffffffffffffffffffffffffffffffffffff161415611b78576040517f08c379a0000000000000000000000000000000000000000000000000000000008152600401611b6f90612d7a565b60405180910390fd5b80600560008573ffffffffffffffffffffffffffffffffffffffff1673ffffffffffffffffffffffffffffffffffffffff16815260200190815260200160002060008473ffffffffffffffffffffffffffffffffffffffff1673ffffffffffffffffffffffffffffffffffffffff16815260200190815260200160002060006101000a81548160ff0219169083151502179055508173ffffffffffffffffffffffffffffffffffffffff168373ffffffffffffffffffffffffffffffffffffffff167f17307eab39ab6107e8899845ad3d59bd9653f200f220920489ca2b5937696c3183604051611c699190612c7d565b60405180910390a3505050565b611c90828260405180602001604052806000815250611e2c565b5050565b611c9d826115d1565b611cdc576040517f08c379a0000000000000000000000000000000000000000000000000000000008152600401611cd390612e1a565b60405180910390fd5b80600660008481526020019081526020016000209080519060200190611d039291906123c8565b505050565b611d138484846117dc565b611d1f84848484611e87565b611d5e576040517f08c379a0000000000000000000000000000000000000000000000000000000008152600401611d5590612cba565b60405180910390fd5b50505050565b606060405180602001604052806000815250905090565b6060611d86826115d1565b611dc5576040517f08c379a0000000000000000000000000000000000000000000000000000000008152600401611dbc90612eda565b60405180910390fd5b6000611dcf611d64565b90506000815111611def5760405180602001604052806000815250611e1a565b80611df98461201e565b604051602001611e0a929190612bf2565b6040516020818303038152906040525b915050919050565b505050565b505050565b611e3683836121cb565b611e436000848484611e87565b611e82576040517f08c379a0000000000000000000000000000000000000000000000000000000008152600401611e7990612cba565b60405180910390fd5b505050565b6000611ea88473ffffffffffffffffffffffffffffffffffffffff166123a5565b15612011578373ffffffffffffffffffffffffffffffffffffffff1663150b7a02611ed161163d565b8786866040518563ffffffff1660e01b8152600401611ef39493929190612c31565b602060405180830381600087803b158015611f0d57600080fd5b505af1925050508015611f3e57506040513d601f19601f82011682018060405250810190611f3b9190612774565b60015b611fc1573d8060008114611f6e576040519150601f19603f3d011682016040523d82523d6000602084013e611f73565b606091505b50600081511415611fb9576040517f08c379a0000000000000000000000000000000000000000000000000000000008152600401611fb090612cba565b60405180910390fd5b805181602001fd5b63150b7a0260e01b7bffffffffffffffffffffffffffffffffffffffffffffffffffffffff1916817bffffffffffffffffffffffffffffffffffffffffffffffffffffffff191614915050612016565b600190505b949350505050565b60606000821415612066576040518060400160405280600181526020017f300000000000000000000000000000000000000000000000000000000000000081525090506121c6565b600082905060005b600082146120985780806120819061326d565b915050600a826120919190613095565b915061206e565b60008167ffffffffffffffff8111156120da577f4e487b7100000000000000000000000000000000000000000000000000000000600052604160045260246000fd5b6040519080825280601f01601f19166020018201604052801561210c5781602001600182028036833780820191505090505b5090505b600085146121bf576001826121259190613120565b9150600a8561213491906132b6565b6030612140919061303f565b60f81b81838151811061217c577f4e487b7100000000000000000000000000000000000000000000000000000000600052603260045260246000fd5b60200101907effffffffffffffffffffffffffffffffffffffffffffffffffffffffffffff1916908160001a905350600a856121b89190613095565b9450612110565b8093505050505b919050565b600073ffffffffffffffffffffffffffffffffffffffff168273ffffffffffffffffffffffffffffffffffffffff16141561223b576040517f08c379a000000000000000000000000000000000000000000000000000000000815260040161223290612e5a565b60405180910390fd5b612244816115d1565b15612284576040517f08c379a000000000000000000000000000000000000000000000000000000000815260040161227b90612d3a565b60405180910390fd5b61229060008383611e22565b6001600360008473ffffffffffffffffffffffffffffffffffffffff1673ffffffffffffffffffffffffffffffffffffffff16815260200190815260200160002060008282546122e0919061303f565b92505081905550816002600083815260200190815260200160002060006101000a81548173ffffffffffffffffffffffffffffffffffffffff021916908373ffffffffffffffffffffffffffffffffffffffff160217905550808273ffffffffffffffffffffffffffffffffffffffff16600073ffffffffffffffffffffffffffffffffffffffff167fddf252ad1be2c89b69c2b068fc378daa952ba7f163c4a11628f55a4df523b3ef60405160405180910390a46123a160008383611e27565b5050565b6000808273ffffffffffffffffffffffffffffffffffffffff163b119050919050565b8280546123d49061320a565b90600052602060002090601f0160209004810192826123f6576000855561243d565b82601f1061240f57805160ff191683800117855561243d565b8280016001018555821561243d579182015b8281111561243c578251825591602001919060010190612421565b5b50905061244a919061244e565b5090565b5b8082111561246757600081600090555060010161244f565b5090565b600061247e61247984612f9a565b612f75565b90508281526020810184848401111561249657600080fd5b6124a18482856131c8565b509392505050565b60006124bc6124b784612fcb565b612f75565b9050828152602081018484840111156124d457600080fd5b6124df8482856131c8565b509392505050565b6000813590506124f68161394b565b92915050565b60008135905061250b81613962565b92915050565b60008135905061252081613979565b92915050565b60008151905061253581613979565b92915050565b600082601f83011261254c57600080fd5b813561255c84826020860161246b565b91505092915050565b600082601f83011261257657600080fd5b81356125868482602086016124a9565b91505092915050565b60008135905061259e81613990565b92915050565b6000602082840312156125b657600080fd5b60006125c4848285016124e7565b91505092915050565b600080604083850312156125e057600080fd5b60006125ee858286016124e7565b92505060206125ff858286016124e7565b9150509250929050565b60008060006060848603121561261e57600080fd5b600061262c868287016124e7565b935050602061263d868287016124e7565b925050604061264e8682870161258f565b9150509250925092565b6000806000806080858703121561266e57600080fd5b600061267c878288016124e7565b945050602061268d878288016124e7565b935050604061269e8782880161258f565b925050606085013567ffffffffffffffff8111156126bb57600080fd5b6126c78782880161253b565b91505092959194509250565b600080604083850312156126e657600080fd5b60006126f4858286016124e7565b9250506020612705858286016124fc565b9150509250929050565b6000806040838503121561272257600080fd5b6000612730858286016124e7565b92505060206127418582860161258f565b9150509250929050565b60006020828403121561275d57600080fd5b600061276b84828501612511565b91505092915050565b60006020828403121561278657600080fd5b600061279484828501612526565b91505092915050565b6000602082840312156127af57600080fd5b600082013567ffffffffffffffff8111156127c957600080fd5b6127d584828501612565565b91505092915050565b6000602082840312156127f057600080fd5b60006127fe8482850161258f565b91505092915050565b6000806040838503121561281a57600080fd5b60006128288582860161258f565b9250506020612839858286016124e7565b9150509250929050565b61284c81613154565b82525050565b61285b81613166565b82525050565b600061286c82612ffc565b6128768185613012565b93506128868185602086016131d7565b61288f816133a3565b840191505092915050565b60006128a582613007565b6128af8185613023565b93506128bf8185602086016131d7565b6128c8816133a3565b840191505092915050565b60006128de82613007565b6128e88185613034565b93506128f88185602086016131d7565b80840191505092915050565b6000612911603283613023565b915061291c826133b4565b604082019050919050565b6000612934602083613023565b915061293f82613403565b602082019050919050565b6000612957602683613023565b91506129628261342c565b604082019050919050565b600061297a602583613023565b91506129858261347b565b604082019050919050565b600061299d601c83613023565b91506129a8826134ca565b602082019050919050565b60006129c0602483613023565b91506129cb826134f3565b604082019050919050565b60006129e3601983613023565b91506129ee82613542565b602082019050919050565b6000612a06602c83613023565b9150612a118261356b565b604082019050919050565b6000612a29603883613023565b9150612a34826135ba565b604082019050919050565b6000612a4c602a83613023565b9150612a5782613609565b604082019050919050565b6000612a6f602983613023565b9150612a7a82613658565b604082019050919050565b6000612a92602e83613023565b9150612a9d826136a7565b604082019050919050565b6000612ab5601b83613023565b9150612ac0826136f6565b602082019050919050565b6000612ad8602083613023565b9150612ae38261371f565b602082019050919050565b6000612afb603183613023565b9150612b0682613748565b604082019050919050565b6000612b1e602c83613023565b9150612b2982613797565b604082019050919050565b6000612b41602083613023565b9150612b4c826137e6565b602082019050919050565b6000612b64602f83613023565b9150612b6f8261380f565b604082019050919050565b6000612b87602183613023565b9150612b928261385e565b604082019050919050565b6000612baa602683613023565b9150612bb5826138ad565b604082019050919050565b6000612bcd603183613023565b9150612bd8826138fc565b604082019050919050565b612bec816131be565b82525050565b6000612bfe82856128d3565b9150612c0a82846128d3565b91508190509392505050565b6000602082019050612c2b6000830184612843565b92915050565b6000608082019050612c466000830187612843565b612c536020830186612843565b612c606040830185612be3565b8181036060830152612c728184612861565b905095945050505050565b6000602082019050612c926000830184612852565b92915050565b60006020820190508181036000830152612cb2818461289a565b905092915050565b60006020820190508181036000830152612cd381612904565b9050919050565b60006020820190508181036000830152612cf381612927565b9050919050565b60006020820190508181036000830152612d138161294a565b9050919050565b60006020820190508181036000830152612d338161296d565b9050919050565b60006020820190508181036000830152612d5381612990565b9050919050565b60006020820190508181036000830152612d73816129b3565b9050919050565b60006020820190508181036000830152612d93816129d6565b9050919050565b60006020820190508181036000830152612db3816129f9565b9050919050565b60006020820190508181036000830152612dd381612a1c565b9050919050565b60006020820190508181036000830152612df381612a3f565b9050919050565b60006020820190508181036000830152612e1381612a62565b9050919050565b60006020820190508181036000830152612e3381612a85565b9050919050565b60006020820190508181036000830152612e5381612aa8565b9050919050565b60006020820190508181036000830152612e7381612acb565b9050919050565b60006020820190508181036000830152612e9381612aee565b9050919050565b60006020820190508181036000830152612eb381612b11565b9050919050565b60006020820190508181036000830152612ed381612b34565b9050919050565b60006020820190508181036000830152612ef381612b57565b9050919050565b60006020820190508181036000830152612f1381612b7a565b9050919050565b60006020820190508181036000830152612f3381612b9d565b9050919050565b60006020820190508181036000830152612f5381612bc0565b9050919050565b6000602082019050612f6f6000830184612be3565b92915050565b6000612f7f612f90565b9050612f8b828261323c565b919050565b6000604051905090565b600067ffffffffffffffff821115612fb557612fb4613374565b5b612fbe826133a3565b9050602081019050919050565b600067ffffffffffffffff821115612fe657612fe5613374565b5b612fef826133a3565b9050602081019050919050565b600081519050919050565b600081519050919050565b600082825260208201905092915050565b600082825260208201905092915050565b600081905092915050565b600061304a826131be565b9150613055836131be565b9250827fffffffffffffffffffffffffffffffffffffffffffffffffffffffffffffffff0382111561308a576130896132e7565b5b828201905092915050565b60006130a0826131be565b91506130ab836131be565b9250826130bb576130ba613316565b5b828204905092915050565b60006130d1826131be565b91506130dc836131be565b9250817fffffffffffffffffffffffffffffffffffffffffffffffffffffffffffffffff0483118215151615613115576131146132e7565b5b828202905092915050565b600061312b826131be565b9150613136836131be565b925082821015613149576131486132e7565b5b828203905092915050565b600061315f8261319e565b9050919050565b60008115159050919050565b60007fffffffff0000000000000000000000000000000000000000000000000000000082169050919050565b600073ffffffffffffffffffffffffffffffffffffffff82169050919050565b6000819050919050565b82818337600083830152505050565b60005b838110156131f55780820151818401526020810190506131da565b83811115613204576000848401525b50505050565b6000600282049050600182168061322257607f821691505b6020821081141561323657613235613345565b5b50919050565b613245826133a3565b810181811067ffffffffffffffff8211171561326457613263613374565b5b80604052505050565b6000613278826131be565b91507fffffffffffffffffffffffffffffffffffffffffffffffffffffffffffffffff8214156132ab576132aa6132e7565b5b600182019050919050565b60006132c1826131be565b91506132cc836131be565b9250826132dc576132db613316565b5b828206905092915050565b7f4e487b7100000000000000000000000000000000000000000000000000000000600052601160045260246000fd5b7f4e487b7100000000000000000000000000000000000000000000000000000000600052601260045260246000fd5b7f4e487b7100000000000000000000000000000000000000000000000000000000600052602260045260246000fd5b7f4e487b7100000000000000000000000000000000000000000000000000000000600052604160045260246000fd5b6000601f19601f8301169050919050565b7f4552433732313a207472616e7366657220746f206e6f6e20455243373231526560008201527f63656976657220696d706c656d656e7465720000000000000000000000000000602082015250565b7f4d696e696d756d20746f6b656e20707269636520697320302e3032204554482e600082015250565b7f4f776e61626c653a206e6577206f776e657220697320746865207a65726f206160008201527f6464726573730000000000000000000000000000000000000000000000000000602082015250565b7f4552433732313a207472616e736665722066726f6d20696e636f72726563742060008201527f6f776e6572000000000000000000000000000000000000000000000000000000602082015250565b7f4552433732313a20746f6b656e20616c7265616479206d696e74656400000000600082015250565b7f4552433732313a207472616e7366657220746f20746865207a65726f2061646460008201527f7265737300000000000000000000000000000000000000000000000000000000602082015250565b7f4552433732313a20617070726f766520746f2063616c6c657200000000000000600082015250565b7f4552433732313a206f70657261746f7220717565727920666f72206e6f6e657860008201527f697374656e7420746f6b656e0000000000000000000000000000000000000000602082015250565b7f4552433732313a20617070726f76652063616c6c6572206973206e6f74206f7760008201527f6e6572206e6f7220617070726f76656420666f7220616c6c0000000000000000602082015250565b7f4552433732313a2062616c616e636520717565727920666f7220746865207a6560008201527f726f206164647265737300000000000000000000000000000000000000000000602082015250565b7f4552433732313a206f776e657220717565727920666f72206e6f6e657869737460008201527f656e7420746f6b656e0000000000000000000000000000000000000000000000602082015250565b7f45524337323155524953746f726167653a2055524920736574206f66206e6f6e60008201527f6578697374656e7420746f6b656e000000000000000000000000000000000000602082015250565b7f546f6b656e7320737570706c792072656163686564206c696d69740000000000600082015250565b7f4552433732313a206d696e7420746f20746865207a65726f2061646472657373600082015250565b7f45524337323155524953746f726167653a2055524920717565727920666f722060008201527f6e6f6e6578697374656e7420746f6b656e000000000000000000000000000000602082015250565b7f4552433732313a20617070726f76656420717565727920666f72206e6f6e657860008201527f697374656e7420746f6b656e0000000000000000000000000000000000000000602082015250565b7f4f776e61626c653a2063616c6c6572206973206e6f7420746865206f776e6572600082015250565b7f4552433732314d657461646174613a2055524920717565727920666f72206e6f60008201527f6e6578697374656e7420746f6b656e0000000000000000000000000000000000602082015250565b7f4552433732313a20617070726f76616c20746f2063757272656e74206f776e6560008201527f7200000000000000000000000000000000000000000000000000000000000000602082015250565b7f6d61784d696e747350657257616c6c657420636f6e73747261696e742076696f60008201527f6c6174696f6e0000000000000000000000000000000000000000000000000000602082015250565b7f4552433732313a207472616e736665722063616c6c6572206973206e6f74206f60008201527f776e6572206e6f7220617070726f766564000000000000000000000000000000602082015250565b61395481613154565b811461395f57600080fd5b50565b61396b81613166565b811461397657600080fd5b50565b61398281613172565b811461398d57600080fd5b50565b613999816131be565b81146139a457600080fd5b5056fea26469706673582212207aa53d19db2d69b0be260d13b72e49c3b4def09454e67f938d268f1e23e5da1264736f6c63430008040033",
  "linkReferences": {},
  "deployedLinkReferences": {}
}